{
  "_format": "hh-sol-artifact-1",
  "contractName": "SpendLimitModule",
  "sourceName": "contracts/spendlimit/SpendLimitModule.sol",
  "abi": [
    {
      "inputs": [
        {
          "internalType": "address",
          "name": "smartAccount",
          "type": "address"
        }
      ],
      "name": "AlreadyInitialized",
      "type": "error"
    },
    {
      "inputs": [],
      "name": "ExecutionFailed",
      "type": "error"
    },
    {
      "inputs": [
        {
          "internalType": "address",
          "name": "smartAccount",
          "type": "address"
        }
      ],
      "name": "NotInitialized",
      "type": "error"
    },
    {
      "anonymous": false,
      "inputs": [
        {
          "indexed": true,
          "internalType": "address",
          "name": "sessionKey",
          "type": "address"
        },
        {
          "indexed": true,
          "internalType": "address",
          "name": "account",
          "type": "address"
        }
      ],
      "name": "SessionKeyAdded",
      "type": "event"
    },
    {
      "inputs": [
        {
          "internalType": "address",
          "name": "sessionKey",
          "type": "address"
        },
        {
          "components": [
            {
              "internalType": "address",
              "name": "token",
              "type": "address"
            },
            {
              "internalType": "address",
              "name": "account",
              "type": "address"
            },
            {
              "internalType": "uint48",
              "name": "validAfter",
              "type": "uint48"
            },
            {
              "internalType": "uint48",
              "name": "validUntil",
              "type": "uint48"
            },
            {
              "internalType": "uint256",
              "name": "limitAmount",
              "type": "uint256"
            },
            {
              "internalType": "uint256",
              "name": "limitUsed",
              "type": "uint256"
            },
            {
              "internalType": "uint48",
              "name": "lastUsed",
              "type": "uint48"
            },
            {
              "internalType": "uint48",
              "name": "refreshInterval",
              "type": "uint48"
            }
          ],
          "internalType": "struct SpendLimitModule.SessionData",
          "name": "sessionData",
          "type": "tuple"
        }
      ],
      "name": "addSessionKey",
      "outputs": [
        {
          "internalType": "uint256",
          "name": "",
          "type": "uint256"
        }
      ],
      "stateMutability": "nonpayable",
      "type": "function"
    },
    {
      "inputs": [
        {
          "internalType": "address",
          "name": "sessionKey",
          "type": "address"
        },
        {
          "internalType": "uint256",
          "name": "sessionId",
          "type": "uint256"
        },
        {
          "internalType": "address",
          "name": "to",
          "type": "address"
        },
        {
          "internalType": "uint256",
          "name": "value",
          "type": "uint256"
        },
        {
          "internalType": "bytes",
          "name": "data",
          "type": "bytes"
        }
      ],
      "name": "execute",
      "outputs": [
        {
          "internalType": "bytes",
          "name": "",
          "type": "bytes"
        }
      ],
      "stateMutability": "nonpayable",
      "type": "function"
    },
    {
      "inputs": [
        {
          "internalType": "address",
          "name": "sessionKey",
          "type": "address"
        }
      ],
      "name": "getSessionData",
      "outputs": [
        {
          "components": [
            {
              "internalType": "address",
              "name": "token",
              "type": "address"
            },
            {
              "internalType": "address",
              "name": "account",
              "type": "address"
            },
            {
              "internalType": "uint48",
              "name": "validAfter",
              "type": "uint48"
            },
            {
              "internalType": "uint48",
              "name": "validUntil",
              "type": "uint48"
            },
            {
              "internalType": "uint256",
              "name": "limitAmount",
              "type": "uint256"
            },
            {
              "internalType": "uint256",
              "name": "limitUsed",
              "type": "uint256"
            },
            {
              "internalType": "uint48",
              "name": "lastUsed",
              "type": "uint48"
            },
            {
              "internalType": "uint48",
              "name": "refreshInterval",
              "type": "uint48"
            }
          ],
          "internalType": "struct SpendLimitModule.SessionData[]",
          "name": "",
          "type": "tuple[]"
        }
      ],
      "stateMutability": "view",
      "type": "function"
    },
    {
      "inputs": [
        {
          "internalType": "address",
          "name": "smartAccount",
          "type": "address"
        }
      ],
      "name": "isInitialized",
      "outputs": [
        {
          "internalType": "bool",
          "name": "",
          "type": "bool"
        }
      ],
      "stateMutability": "view",
      "type": "function"
    },
    {
      "inputs": [
        {
          "internalType": "uint256",
          "name": "typeID",
          "type": "uint256"
        }
      ],
      "name": "isModuleType",
      "outputs": [
        {
          "internalType": "bool",
          "name": "",
          "type": "bool"
        }
      ],
      "stateMutability": "pure",
      "type": "function"
    },
    {
      "inputs": [
        {
          "internalType": "address",
          "name": "",
          "type": "address"
        },
        {
          "internalType": "bytes32",
          "name": "hash",
          "type": "bytes32"
        },
        {
          "internalType": "bytes",
          "name": "data",
          "type": "bytes"
        }
      ],
      "name": "isValidSignatureWithSender",
      "outputs": [
        {
          "internalType": "bytes4",
          "name": "",
          "type": "bytes4"
        }
      ],
      "stateMutability": "view",
      "type": "function"
    },
    {
      "inputs": [],
      "name": "name",
      "outputs": [
        {
          "internalType": "string",
          "name": "",
          "type": "string"
        }
      ],
      "stateMutability": "pure",
      "type": "function"
    },
    {
      "inputs": [
        {
          "internalType": "bytes",
          "name": "data",
          "type": "bytes"
        }
      ],
      "name": "onInstall",
      "outputs": [],
      "stateMutability": "nonpayable",
      "type": "function"
    },
    {
      "inputs": [
        {
          "internalType": "bytes",
          "name": "",
          "type": "bytes"
        }
      ],
      "name": "onUninstall",
      "outputs": [],
      "stateMutability": "nonpayable",
      "type": "function"
    },
    {
      "inputs": [
        {
          "internalType": "address",
          "name": "",
          "type": "address"
        },
        {
          "internalType": "uint256",
          "name": "",
          "type": "uint256"
        }
      ],
      "name": "sessionKeys",
      "outputs": [
        {
          "internalType": "address",
          "name": "token",
          "type": "address"
        },
        {
          "internalType": "address",
          "name": "account",
          "type": "address"
        },
        {
          "internalType": "uint48",
          "name": "validAfter",
          "type": "uint48"
        },
        {
          "internalType": "uint48",
          "name": "validUntil",
          "type": "uint48"
        },
        {
          "internalType": "uint256",
          "name": "limitAmount",
          "type": "uint256"
        },
        {
          "internalType": "uint256",
          "name": "limitUsed",
          "type": "uint256"
        },
        {
          "internalType": "uint48",
          "name": "lastUsed",
          "type": "uint48"
        },
        {
          "internalType": "uint48",
          "name": "refreshInterval",
          "type": "uint48"
        }
      ],
      "stateMutability": "view",
      "type": "function"
    },
    {
      "inputs": [
        {
          "components": [
            {
              "internalType": "address",
              "name": "sender",
              "type": "address"
            },
            {
              "internalType": "uint256",
              "name": "nonce",
              "type": "uint256"
            },
            {
              "internalType": "bytes",
              "name": "initCode",
              "type": "bytes"
            },
            {
              "internalType": "bytes",
              "name": "callData",
              "type": "bytes"
            },
            {
              "internalType": "bytes32",
              "name": "accountGasLimits",
              "type": "bytes32"
            },
            {
              "internalType": "uint256",
              "name": "preVerificationGas",
              "type": "uint256"
            },
            {
              "internalType": "bytes32",
              "name": "gasFees",
              "type": "bytes32"
            },
            {
              "internalType": "bytes",
              "name": "paymasterAndData",
              "type": "bytes"
            },
            {
              "internalType": "bytes",
              "name": "signature",
              "type": "bytes"
            }
          ],
          "internalType": "struct PackedUserOperation",
          "name": "userOp",
          "type": "tuple"
        },
        {
          "internalType": "bytes32",
          "name": "userOpHash",
          "type": "bytes32"
        }
      ],
      "name": "validateUserOp",
      "outputs": [
        {
          "internalType": "ERC7579ValidatorBase.ValidationData",
          "name": "",
          "type": "uint256"
        }
      ],
      "stateMutability": "view",
      "type": "function"
    },
    {
      "inputs": [],
      "name": "version",
      "outputs": [
        {
          "internalType": "string",
          "name": "",
          "type": "string"
        }
      ],
      "stateMutability": "pure",
      "type": "function"
    }
  ],
  "bytecode": "0x6080806040523461001657610f4f908161001c8239f35b600080fdfe60806040908082526004918236101561001757600080fd5b60009160e08335811c91826306fdde0314610b72575081633933fee6146109365781634fe05a511461064e57816354fd4d50146105ed57816368b57a24146105455781636d61fe70146105405781638a91b0e31461054057816397003203146102dc578163ced202321461015457508063d60b347f1461012f578063ecd05961146100f65763f551e2ee146100ab57600080fd5b346100f25760603660031901126100f2576100c4610c17565b5060443567ffffffffffffffff81116100ee576020936100e691369101610cb9565b505051908152f35b8280fd5b5080fd5b5082346100ee5760203660031901126100ee5760209250359060018214918215610124575b50519015158152f35b60021491508361011b565b50346100f25760203660031901126100f2579060209161014d610c17565b5051908152f35b905083346102d8576020806003193601126102d4576001600160a01b03939185918561017e610c17565b16835282815283832093845461019381610dd2565b936101a083519586610c97565b81855283850190819787528487209087925b8b8585106102515750505050505080519582870193838852518094528187019594915b8483106101e25787870388f35b855180518a168852808501518a16888601528082015165ffffffffffff908116898401526060808301518216908a0152608080830151908a015260a080830151908a015260c0808301518216908a015290830151168783015261010090960195948301946001909201916101d5565b8760019288600593819f9a9d9b9c9d519161026b83610c48565b818954168352868901549182168584015265ffffffffffff9160a0918382841c169085015260d01c6060840152600289015460808401526003890154908301528688015481811660c084015260301c168a820152815201930193019291999499979695976101b2565b8480fd5b8380fd5b5050903461053d5760031982813601126100f257833567ffffffffffffffff81116100ee576101208186019282360301126100ee576024906103216064820184610d9f565b9390968460641161053557606319850180601411610539576034116105355760971985016010116105355760a86103b89801356bffffffffffffffffffffffff199081811696601460a71982011061051d575b505050606094851c806103bf60209a8b9560243587527b19457468657265756d205369676e6564204d6573736167653a0a33328b52610104603c8720980190610d9f565b3691610d68565b958880988689019361040a575b50965050505050505050156000146103f7575065ffffffffffff60a01b60ff6001925b519216178152f35b60ff65ffffffffffff60a01b91926103ef565b909192939495969798508a5193888352518b528a8951146104d1575b604189511461048c575b528189527f1626ba7e0000000000000000000000000000000000000000000000000000000095868352848301528101958693898552815186019081604493848601925afa503d01915afa915114163880858180808088816103cc565b80890151821a87528a890151815260018781608085825afa5186183d1517156104b55750610430565b95509750945050935050925283523880858180808088816103cc565b7f7fffffffffffffffffffffffffffffffffffffffffffffffffffffffffffffff8b8a0151601b8160ff1c01895216815260018781608085825afa5186183d1517156104b55750610426565b60140360a80160031b82901b16169450388080610374565b8580fd5b8680fd5b80fd5b610d19565b90508391346102d857806003193601126102d857610561610c17565b602435946001600160a01b0380921681528060205282812090815487101561053d57506101009561059191610ce7565b508181541694600182015465ffffffffffff94600284015492600385015494015494815198895282166020890152858260a01c169088015260d01c6060870152608086015260a085015281811660c085015260301c1690820152f35b5050346100f257816003193601126100f257805161064a9161060e82610c7b565b600582527f302e302e31000000000000000000000000000000000000000000000000000000602083015251918291602083526020830190610bf2565b0390f35b505082346100ee5760a03660031901126100ee5761066a610c17565b92610673610c32565b91606435946084359067ffffffffffffffff918281116102d45761069d6106d19136908601610cb9565b9190928915908160001461092f5788915b15610928576106c66106c1368688610d68565b610dea565b905b60243591610e00565b1561090057966106e985926107b19798993691610d68565b968851906020988983019285845285602182015285602282015285602682015285602a8201528a815261071b81610c7b565b519251928a81106108ea575b50610773916054918c519586926bffffffffffffffffffffffff199060601b168d84015260348301526107638c82519283918686019101610bcf565b8101036034810185520183610c97565b885196879283927fd691c964000000000000000000000000000000000000000000000000000000008452878401528a60248401526044830190610bf2565b038183335af19384156108e05783946107fa575b50508251156107e75750508161064a9101519251928284938452830190610bf2565b906032602492634e487b7160e01b835252fd5b909193503d8084833e61080d8183610c97565b81019085818303126102d8578051908382116102d457019080601f830112156102d85781519061083c82610dd2565b9361084989519586610c97565b828552878086019360051b8501019382851161053957888101935b858510610879575050505050509185806107c5565b84518381116108dc57820184603f820112156108dc578a8101518c918661089f83610d4c565b936108ac81519586610c97565b83855283830101116108d857916108cd8d94928f9486958685019101610bcf565b815201940193610864565b8a80fd5b8880fd5b86513d85823e3d90fd5b600019908b0360031b1b90921691610773610727565b8387517facfdb444000000000000000000000000000000000000000000000000000000008152fd5b8a906106c8565b87916106ae565b92919050346100f2576101203660031901126100f257610954610c17565b6101003660231901126100ee5781519361096d85610c48565b6001600160a01b03602435818116810361053557865261098b610c32565b50602086019565ffffffffffff916064358381168103610b6e578683019081526084359084821682036108dc5760608401918252608084019160a435835260a085019360c435855260e43598878a168a03610b6a5760c08701998a526101043598888a168a03610b66579082918801998a528d339052169b8c8c528b6020528a8c2080549068010000000000000000821015610b525790610a3191600182018155610ce7565b979097610b4057828f989796959493927fffffffffffff00000000000000000000000000000000000000000000000000009365ffffffffffff60a01b9351167fffffffffffffffffffffffff00000000000000000000000000000000000000008a54161789555116935160a01b16915160d01b169117176001840155516002830155516003820155019251166bffffffffffff0000000000008354925160301b16916bffffffffffffffffffffffff19161717905580519233817f18181a00afae36a38027e087bdecba0ee3dd48839669ffb2b1484450c703267b8580a3825281602052812054906000198201918211610b2d57602083838152f35b80601185634e487b7160e01b6024945252fd5b634e487b7160e01b8d528c8f5260248dfd5b8f8e6041602492634e487b7160e01b835252fd5b8c80fd5b8b80fd5b8780fd5b849084346100ee57826003193601126100ee5761064a9250610b9382610c7b565b601182527f5370656e644c696d697453657373696f6e000000000000000000000000000000602083015251918291602083526020830190610bf2565b60005b838110610be25750506000910152565b8181015183820152602001610bd2565b90602091610c0b81518092818552858086019101610bcf565b601f01601f1916010190565b600435906001600160a01b0382168203610c2d57565b600080fd5b604435906001600160a01b0382168203610c2d57565b610100810190811067ffffffffffffffff821117610c6557604052565b634e487b7160e01b600052604160045260246000fd5b6040810190811067ffffffffffffffff821117610c6557604052565b90601f8019910116810190811067ffffffffffffffff821117610c6557604052565b9181601f84011215610c2d5782359167ffffffffffffffff8311610c2d5760208381860195010111610c2d57565b8054821015610d03576000526005602060002091020190600090565b634e487b7160e01b600052603260045260246000fd5b34610c2d576020366003190112610c2d5760043567ffffffffffffffff8111610c2d57610d4a903690600401610cb9565b005b67ffffffffffffffff8111610c6557601f01601f191660200190565b929192610d7482610d4c565b91610d826040519384610c97565b829481845281830111610c2d578281602093846000960137010152565b903590601e1981360301821215610c2d570180359067ffffffffffffffff8211610c2d57602001918136038313610c2d57565b67ffffffffffffffff8111610c655760051b60200190565b6044815110610dfa576044015190565b50600090565b92610e216001600160a01b0393846000941684528360205260408420610ce7565b509280845416911603610e97576004820180549265ffffffffffff91828560301c1694600283015493600384019660018854950154828160a01c164210908115610f0c575b50610f00578015908115610ed4575b5015610ea7575050508401938410908115610e9d575b50610e97575055600190565b91505090565b9050831138610e8b565b94919680949196935011610ecb57505542169065ffffffffffff1916179055600190565b94505050505090565b905081831601818111610eec57814291161138610e75565b602487634e487b7160e01b81526011600452fd5b50505050505091505090565b905060d01c421138610e6656fea2646970667358221220ee0a81296f714e84b319efed358c41da873049c8b15d4767b6c65d358075c5cd64736f6c63430008170033",
  "linkReferences": {},
  "deployedLinkReferences": {}
}